{
  "contractName": "MetaTxForwarder",
  "abi": [
    {
      "anonymous": false,
      "inputs": [
        {
          "indexed": false,
          "internalType": "uint8",
          "name": "version",
          "type": "uint8"
        }
      ],
      "name": "Initialized",
      "type": "event"
    },
    {
      "inputs": [],
      "name": "initialize",
      "outputs": [],
      "stateMutability": "nonpayable",
      "type": "function"
    },
    {
      "inputs": [
        {
          "internalType": "address",
          "name": "from_",
          "type": "address"
        }
      ],
      "name": "getNonce",
      "outputs": [
        {
          "internalType": "uint256",
          "name": "",
          "type": "uint256"
        }
      ],
      "stateMutability": "view",
      "type": "function"
    },
    {
      "inputs": [
        {
          "components": [
            {
              "internalType": "address",
              "name": "from",
              "type": "address"
            },
            {
              "internalType": "address",
              "name": "to",
              "type": "address"
            },
            {
              "internalType": "uint256",
              "name": "value",
              "type": "uint256"
            },
            {
              "internalType": "uint256",
              "name": "gas",
              "type": "uint256"
            },
            {
              "internalType": "uint256",
              "name": "nonce",
              "type": "uint256"
            },
            {
              "internalType": "bytes",
              "name": "data",
              "type": "bytes"
            }
          ],
          "internalType": "struct MetaTxForwarder.ForwardRequest",
          "name": "req_",
          "type": "tuple"
        },
        {
          "internalType": "bytes",
          "name": "signature_",
          "type": "bytes"
        }
      ],
      "name": "verify",
      "outputs": [
        {
          "internalType": "bool",
          "name": "",
          "type": "bool"
        }
      ],
      "stateMutability": "view",
      "type": "function"
    },
    {
      "inputs": [
        {
          "components": [
            {
              "internalType": "address",
              "name": "from",
              "type": "address"
            },
            {
              "internalType": "address",
              "name": "to",
              "type": "address"
            },
            {
              "internalType": "uint256",
              "name": "value",
              "type": "uint256"
            },
            {
              "internalType": "uint256",
              "name": "gas",
              "type": "uint256"
            },
            {
              "internalType": "uint256",
              "name": "nonce",
              "type": "uint256"
            },
            {
              "internalType": "bytes",
              "name": "data",
              "type": "bytes"
            }
          ],
          "internalType": "struct MetaTxForwarder.ForwardRequest",
          "name": "req_",
          "type": "tuple"
        },
        {
          "internalType": "bytes",
          "name": "signature_",
          "type": "bytes"
        }
      ],
      "name": "execute",
      "outputs": [
        {
          "internalType": "bool",
          "name": "",
          "type": "bool"
        },
        {
          "internalType": "bytes",
          "name": "",
          "type": "bytes"
        }
      ],
      "stateMutability": "payable",
      "type": "function"
    },
    {
      "inputs": [],
      "name": "contractVersion",
      "outputs": [
        {
          "internalType": "string",
          "name": "",
          "type": "string"
        }
      ],
      "stateMutability": "pure",
      "type": "function"
    }
  ],
  "bytecode": "0x6080806040523461001657610a46908161001c8239f35b600080fdfe60806040818152600436101561001457600080fd5b600091823560e01c9081632d0335ab146103c95750806347153f821461024b5780638129fc1c146100c8578063a0a8e460146100805763bf5d3bdb1461005957600080fd5b3461007c5760209061007361006d3661040a565b91610602565b90519015158152f35b5080fd5b503461007c578160031936011261007c5780516100c4916100a0826104b6565b60058252640312e302e360dc1b602083015251918291602083526020830190610476565b0390f35b503461007c578160031936011261007c57815460ff8160081c16159081809261023e575b8015610227575b156101cc5760ff1981166001178455816101bb575b50815190610115826104b6565b600582526020820191640312e302e360dc1b8352835192610135846104b6565b600f8452602084016e26b2ba30aa3c2337b93bb0b93232b960891b815286549461016d60ff8760081c1661016881610525565b610525565b5190209151902090600155600255610183578280f35b61ff001916825551600181527f7f26b83ff96e1f2b6a682f133852f6798a09c465da95921460cefb384740249890602090a138808280f35b61ffff191661010117835538610108565b825162461bcd60e51b815260206004820152602e60248201527f496e697469616c697a61626c653a20636f6e747261637420697320616c72656160448201526d191e481a5b9a5d1a585b1a5e995960921b6064820152608490fd5b50303b1580156100f35750600160ff8216146100f3565b50600160ff8216106100ec565b50610262906102593661040a565b90829492610602565b1561036b5760808201359260018401809411610357576001600160a01b0361028984610585565b168152602093603585528282205580806102a4868601610585565b94603460608201359686896102f96102bf60a0870187610599565b6102cb88979297610585565b8551948286938285019a8b3783019160018060601b03199060601b16908201520360148101845201826104e7565b519301359088f1923d1561034e573d6103118161050a565b9061031e855192836104e7565b81528092863d92013e5b603f5a9104101561034c5781806100c4935195869515158652850152830190610476565bfe5b60609150610328565b634e487b7160e01b81526011600452602490fd5b5162461bcd60e51b815260206004820152603260248201527f4d696e696d616c466f727761726465723a207369676e617475726520646f6573604482015271081b9bdd081b585d18da081c995c5d595cdd60721b6064820152608490fd5b91905034610406576020366003190112610406576004356001600160a01b03811690819003610402579260209381526035845220548152f35b8380fd5b8280fd5b9060031990604082840112610471576001600160401b0391600435908382116104715760c090828603011261047157600401926024359083821161047157806023830112156104715781600401359384116104715760248483010111610471576024019190565b600080fd5b919082519283825260005b8481106104a2575050826000602080949584010152601f8019910116010190565b602081830181015184830182015201610481565b604081019081106001600160401b038211176104d157604052565b634e487b7160e01b600052604160045260246000fd5b601f909101601f19168101906001600160401b038211908210176104d157604052565b6001600160401b0381116104d157601f01601f191660200190565b1561052c57565b60405162461bcd60e51b815260206004820152602b60248201527f496e697469616c697a61626c653a20636f6e7472616374206973206e6f74206960448201526a6e697469616c697a696e6760a81b6064820152608490fd5b356001600160a01b03811681036104715790565b903590601e198136030182121561047157018035906001600160401b0382116104715760200191813603831361047157565b9291926105d78261050a565b916105e560405193846104e7565b829481845281830111610471578281602093846000960137010152565b9161060c83610585565b9061061960208501610585565b9160808501359161063761063060a0880188610599565b36916105cb565b602081519101209060409283519260208401917fdd8f4b70b0f4393e889bd39128a30628a78b61816a9eb8199759e7a349657e48835260018060a01b03978880921687870152166060850152848901356080850152606089013560a08501528560c085015260e084015260e0835261010083019660018060401b0391848910838a11176104d1578886528451902097600154946002546101208201967f8b73c3c69bb8fe3d512ecc4cf759cc79239f7b179b0ffacaa9a75d522b39400f885261014083015261016082015246610180820152306101a082015260a082526101c0810195828710858811176104d15761024092878952519020996101e082019a61190160f01b8c526101e2830152610202820152604286520191848310908311176104d1576107829761077a946107749387525190209236916105cb565b9061092d565b9490946107c0565b8261078c86610585565b166000526035602052600020541492836107a7575b50505090565b819293506107b490610585565b169116143880806107a1565b600581101561091757806107d15750565b600181036108195760405162461bcd60e51b815260206004820152601860248201527745434453413a20696e76616c6964207369676e617475726560401b6044820152606490fd5b600281036108665760405162461bcd60e51b815260206004820152601f60248201527f45434453413a20696e76616c6964207369676e6174757265206c656e677468006044820152606490fd5b600381036108be5760405162461bcd60e51b815260206004820152602260248201527f45434453413a20696e76616c6964207369676e6174757265202773272076616c604482015261756560f01b6064820152608490fd5b6004146108c757565b60405162461bcd60e51b815260206004820152602260248201527f45434453413a20696e76616c6964207369676e6174757265202776272076616c604482015261756560f01b6064820152608490fd5b634e487b7160e01b600052602160045260246000fd5b90604181511460001461095b57610957916020820151906060604084015193015160001a90610965565b9091565b5050600090600290565b9291906fa2a8918ca85bafe22016d0b997e4df60600160ff1b038311610a045760ff16601b811415806109f9575b6109ed579160809493916020936040519384528484015260408301526060820152600093849182805260015afa156109e05781516001600160a01b038116156109da579190565b50600190565b50604051903d90823e3d90fd5b50505050600090600490565b50601c811415610993565b5050505060009060039056fea264697066735822122025afd45ae2def01b4bc3fab62ef35ea699fab6c7060f35437b4d98bf63b8337c64736f6c63430008110033",
  "immutableReferences": {},
  "source": "// SPDX-License-Identifier: MIT\npragma solidity ^0.8.0;\n\nimport \"@openzeppelin/contracts-upgradeable/utils/cryptography/ECDSAUpgradeable.sol\";\nimport \"@openzeppelin/contracts-upgradeable/utils/cryptography/draft-EIP712Upgradeable.sol\";\n\ncontract MetaTxForwarder is EIP712Upgradeable {\n    using ECDSAUpgradeable for bytes32;\n\n    struct ForwardRequest {\n        address from;\n        address to;\n        uint256 value;\n        uint256 gas;\n        uint256 nonce;\n        bytes data;\n    }\n\n    bytes32 private constant _TYPEHASH =\n        keccak256(\n            \"ForwardRequest(address from,address to,uint256 value,uint256 gas,uint256 nonce,bytes data)\"\n        );\n    mapping(address => uint256) private _nonces;\n\n    function initialize() public initializer {\n        __EIP712_init(\"MetaTxForwarder\", contractVersion());\n    }\n\n    function getNonce(address from_) public view returns (uint256) {\n        return _nonces[from_];\n    }\n\n    function verify(ForwardRequest calldata req_, bytes calldata signature_)\n        public\n        view\n        returns (bool)\n    {\n        address signer = _hashTypedDataV4(\n            keccak256(\n                abi.encode(\n                    _TYPEHASH,\n                    req_.from,\n                    req_.to,\n                    req_.value,\n                    req_.gas,\n                    req_.nonce,\n                    keccak256(req_.data)\n                )\n            )\n        ).recover(signature_);\n        return _nonces[req_.from] == req_.nonce && signer == req_.from;\n    }\n\n    function execute(ForwardRequest calldata req_, bytes calldata signature_)\n        public\n        payable\n        returns (bool, bytes memory)\n    {\n        require(\n            verify(req_, signature_),\n            \"MinimalForwarder: signature does not match request\"\n        );\n        _nonces[req_.from] = req_.nonce + 1;\n\n        (bool success, bytes memory returndata) = req_.to.call{\n            gas: req_.gas,\n            value: req_.value\n        }(abi.encodePacked(req_.data, req_.from));\n\n        // Validate that the relayer has sent enough gas for the call.\n        // See https://ronan.eth.limo/blog/ethereum-gas-dangers/\n        if (gasleft() <= req_.gas / 63) {\n            // We explicitly trigger invalid opcode to consume all gas and bubble-up the effects, since\n            // neither revert or assert consume all gas since Solidity 0.8.0\n            // https://docs.soliditylang.org/en/v0.8.0/control-structures.html#panic-via-assert-and-error-via-require\n            /// @solidity memory-safe-assembly\n            assembly {\n                invalid()\n            }\n        }\n\n        return (success, returndata);\n    }\n\n    /**\n     * @dev Get contract version\n     * @return (string memory) Version string\n     */\n    function contractVersion() public pure returns (string memory) {\n        return \"1.0.0\";\n    }\n}\n",
  "sourcePath": "/media/veracrypt25/Development/Cerulean Blue/Amberfi/amberfi-contracts/contracts/AmberfiManager/MetaTxForwarder.sol",
  "compiler": {
    "name": "solc",
    "version": "0.8.17+commit.8df45f5f.Emscripten.clang"
  },
  "schemaVersion": "3.4.10",
  "updatedAt": "2022-11-30T17:59:36.031Z",
  "devdoc": {
    "kind": "dev",
    "methods": {
      "contractVersion()": {
        "details": "Get contract version",
        "returns": {
          "_0": "(string memory) Version string"
        }
      }
    },
    "version": 1
  },
  "userdoc": {
    "kind": "user",
    "methods": {},
    "version": 1
  }
}