{
  "contractName": "NFT",
  "abi": [
    {
      "inputs": [],
      "name": "NFT_ZeroAddress",
      "type": "error"
    },
    {
      "anonymous": false,
      "inputs": [
        {
          "indexed": true,
          "internalType": "address",
          "name": "owner",
          "type": "address"
        },
        {
          "indexed": true,
          "internalType": "address",
          "name": "approved",
          "type": "address"
        },
        {
          "indexed": true,
          "internalType": "uint256",
          "name": "tokenId",
          "type": "uint256"
        }
      ],
      "name": "Approval",
      "type": "event"
    },
    {
      "anonymous": false,
      "inputs": [
        {
          "indexed": true,
          "internalType": "address",
          "name": "owner",
          "type": "address"
        },
        {
          "indexed": true,
          "internalType": "address",
          "name": "operator",
          "type": "address"
        },
        {
          "indexed": false,
          "internalType": "bool",
          "name": "approved",
          "type": "bool"
        }
      ],
      "name": "ApprovalForAll",
      "type": "event"
    },
    {
      "anonymous": false,
      "inputs": [
        {
          "indexed": false,
          "internalType": "uint8",
          "name": "version",
          "type": "uint8"
        }
      ],
      "name": "Initialized",
      "type": "event"
    },
    {
      "anonymous": false,
      "inputs": [
        {
          "indexed": true,
          "internalType": "address",
          "name": "owner",
          "type": "address"
        },
        {
          "indexed": true,
          "internalType": "address",
          "name": "approved",
          "type": "address"
        },
        {
          "indexed": true,
          "internalType": "uint256",
          "name": "tokenId",
          "type": "uint256"
        }
      ],
      "name": "LockApproval",
      "type": "event"
    },
    {
      "anonymous": false,
      "inputs": [
        {
          "indexed": true,
          "internalType": "address",
          "name": "owner",
          "type": "address"
        },
        {
          "indexed": true,
          "internalType": "address",
          "name": "operator",
          "type": "address"
        },
        {
          "indexed": false,
          "internalType": "bool",
          "name": "approved",
          "type": "bool"
        }
      ],
      "name": "LockApprovalForAll",
      "type": "event"
    },
    {
      "anonymous": false,
      "inputs": [
        {
          "indexed": true,
          "internalType": "address",
          "name": "operator",
          "type": "address"
        },
        {
          "indexed": true,
          "internalType": "address",
          "name": "from",
          "type": "address"
        },
        {
          "indexed": true,
          "internalType": "uint256",
          "name": "tokenId",
          "type": "uint256"
        },
        {
          "indexed": false,
          "internalType": "uint256",
          "name": "expired",
          "type": "uint256"
        }
      ],
      "name": "Locked",
      "type": "event"
    },
    {
      "anonymous": false,
      "inputs": [
        {
          "indexed": true,
          "internalType": "address",
          "name": "to",
          "type": "address"
        },
        {
          "indexed": false,
          "internalType": "uint256",
          "name": "tokenId",
          "type": "uint256"
        },
        {
          "indexed": true,
          "internalType": "address",
          "name": "royaltyRecipient",
          "type": "address"
        },
        {
          "indexed": false,
          "internalType": "uint96",
          "name": "royaltyValue",
          "type": "uint96"
        }
      ],
      "name": "NFTMinted",
      "type": "event"
    },
    {
      "anonymous": false,
      "inputs": [
        {
          "indexed": true,
          "internalType": "address",
          "name": "previousOwner",
          "type": "address"
        },
        {
          "indexed": true,
          "internalType": "address",
          "name": "newOwner",
          "type": "address"
        }
      ],
      "name": "OwnershipTransferred",
      "type": "event"
    },
    {
      "anonymous": false,
      "inputs": [
        {
          "indexed": true,
          "internalType": "address",
          "name": "from",
          "type": "address"
        },
        {
          "indexed": true,
          "internalType": "address",
          "name": "to",
          "type": "address"
        },
        {
          "indexed": true,
          "internalType": "uint256",
          "name": "tokenId",
          "type": "uint256"
        }
      ],
      "name": "Transfer",
      "type": "event"
    },
    {
      "anonymous": false,
      "inputs": [
        {
          "indexed": true,
          "internalType": "address",
          "name": "operator",
          "type": "address"
        },
        {
          "indexed": true,
          "internalType": "address",
          "name": "from",
          "type": "address"
        },
        {
          "indexed": true,
          "internalType": "uint256",
          "name": "tokenId",
          "type": "uint256"
        }
      ],
      "name": "Unlocked",
      "type": "event"
    },
    {
      "inputs": [],
      "name": "amberfiStorageAddress",
      "outputs": [
        {
          "internalType": "address",
          "name": "",
          "type": "address"
        }
      ],
      "stateMutability": "view",
      "type": "function"
    },
    {
      "inputs": [
        {
          "internalType": "address",
          "name": "to",
          "type": "address"
        },
        {
          "internalType": "uint256",
          "name": "tokenId",
          "type": "uint256"
        }
      ],
      "name": "approve",
      "outputs": [],
      "stateMutability": "nonpayable",
      "type": "function"
    },
    {
      "inputs": [
        {
          "internalType": "address",
          "name": "owner",
          "type": "address"
        }
      ],
      "name": "balanceOf",
      "outputs": [
        {
          "internalType": "uint256",
          "name": "",
          "type": "uint256"
        }
      ],
      "stateMutability": "view",
      "type": "function"
    },
    {
      "inputs": [
        {
          "internalType": "uint256",
          "name": "tokenId",
          "type": "uint256"
        }
      ],
      "name": "burn",
      "outputs": [],
      "stateMutability": "nonpayable",
      "type": "function"
    },
    {
      "inputs": [
        {
          "internalType": "uint256",
          "name": "tokenId",
          "type": "uint256"
        }
      ],
      "name": "getApproved",
      "outputs": [
        {
          "internalType": "address",
          "name": "",
          "type": "address"
        }
      ],
      "stateMutability": "view",
      "type": "function"
    },
    {
      "inputs": [
        {
          "internalType": "uint256",
          "name": "tokenId_",
          "type": "uint256"
        }
      ],
      "name": "getEncryptKey",
      "outputs": [
        {
          "internalType": "string",
          "name": "",
          "type": "string"
        }
      ],
      "stateMutability": "view",
      "type": "function"
    },
    {
      "inputs": [
        {
          "internalType": "uint256",
          "name": "tokenId",
          "type": "uint256"
        }
      ],
      "name": "getLockApproved",
      "outputs": [
        {
          "internalType": "address",
          "name": "",
          "type": "address"
        }
      ],
      "stateMutability": "view",
      "type": "function"
    },
    {
      "inputs": [
        {
          "internalType": "address",
          "name": "owner",
          "type": "address"
        },
        {
          "internalType": "address",
          "name": "operator",
          "type": "address"
        }
      ],
      "name": "isApprovedForAll",
      "outputs": [
        {
          "internalType": "bool",
          "name": "",
          "type": "bool"
        }
      ],
      "stateMutability": "view",
      "type": "function"
    },
    {
      "inputs": [
        {
          "internalType": "address",
          "name": "owner",
          "type": "address"
        },
        {
          "internalType": "address",
          "name": "operator",
          "type": "address"
        }
      ],
      "name": "isLockApprovedForAll",
      "outputs": [
        {
          "internalType": "bool",
          "name": "",
          "type": "bool"
        }
      ],
      "stateMutability": "view",
      "type": "function"
    },
    {
      "inputs": [
        {
          "internalType": "uint256",
          "name": "tokenId",
          "type": "uint256"
        }
      ],
      "name": "isLocked",
      "outputs": [
        {
          "internalType": "bool",
          "name": "",
          "type": "bool"
        }
      ],
      "stateMutability": "view",
      "type": "function"
    },
    {
      "inputs": [
        {
          "internalType": "address",
          "name": "to",
          "type": "address"
        },
        {
          "internalType": "uint256",
          "name": "tokenId",
          "type": "uint256"
        }
      ],
      "name": "lockApprove",
      "outputs": [],
      "stateMutability": "nonpayable",
      "type": "function"
    },
    {
      "inputs": [
        {
          "internalType": "address",
          "name": "from",
          "type": "address"
        },
        {
          "internalType": "uint256",
          "name": "tokenId",
          "type": "uint256"
        },
        {
          "internalType": "uint256",
          "name": "expired",
          "type": "uint256"
        }
      ],
      "name": "lockFrom",
      "outputs": [],
      "stateMutability": "nonpayable",
      "type": "function"
    },
    {
      "inputs": [
        {
          "internalType": "uint256",
          "name": "",
          "type": "uint256"
        }
      ],
      "name": "lockedTokens",
      "outputs": [
        {
          "internalType": "uint256",
          "name": "",
          "type": "uint256"
        }
      ],
      "stateMutability": "view",
      "type": "function"
    },
    {
      "inputs": [
        {
          "internalType": "uint256",
          "name": "tokenId",
          "type": "uint256"
        }
      ],
      "name": "lockerOf",
      "outputs": [
        {
          "internalType": "address",
          "name": "",
          "type": "address"
        }
      ],
      "stateMutability": "view",
      "type": "function"
    },
    {
      "inputs": [],
      "name": "marketAddress",
      "outputs": [
        {
          "internalType": "address",
          "name": "",
          "type": "address"
        }
      ],
      "stateMutability": "view",
      "type": "function"
    },
    {
      "inputs": [],
      "name": "name",
      "outputs": [
        {
          "internalType": "string",
          "name": "",
          "type": "string"
        }
      ],
      "stateMutability": "view",
      "type": "function"
    },
    {
      "inputs": [],
      "name": "owner",
      "outputs": [
        {
          "internalType": "address",
          "name": "",
          "type": "address"
        }
      ],
      "stateMutability": "view",
      "type": "function"
    },
    {
      "inputs": [
        {
          "internalType": "uint256",
          "name": "tokenId",
          "type": "uint256"
        }
      ],
      "name": "ownerOf",
      "outputs": [
        {
          "internalType": "address",
          "name": "",
          "type": "address"
        }
      ],
      "stateMutability": "view",
      "type": "function"
    },
    {
      "inputs": [],
      "name": "renounceOwnership",
      "outputs": [],
      "stateMutability": "nonpayable",
      "type": "function"
    },
    {
      "inputs": [
        {
          "internalType": "uint256",
          "name": "_tokenId",
          "type": "uint256"
        },
        {
          "internalType": "uint256",
          "name": "_salePrice",
          "type": "uint256"
        }
      ],
      "name": "royaltyInfo",
      "outputs": [
        {
          "internalType": "address",
          "name": "",
          "type": "address"
        },
        {
          "internalType": "uint256",
          "name": "",
          "type": "uint256"
        }
      ],
      "stateMutability": "view",
      "type": "function"
    },
    {
      "inputs": [
        {
          "internalType": "address",
          "name": "from",
          "type": "address"
        },
        {
          "internalType": "address",
          "name": "to",
          "type": "address"
        },
        {
          "internalType": "uint256",
          "name": "tokenId",
          "type": "uint256"
        }
      ],
      "name": "safeTransferFrom",
      "outputs": [],
      "stateMutability": "nonpayable",
      "type": "function"
    },
    {
      "inputs": [
        {
          "internalType": "address",
          "name": "from",
          "type": "address"
        },
        {
          "internalType": "address",
          "name": "to",
          "type": "address"
        },
        {
          "internalType": "uint256",
          "name": "tokenId",
          "type": "uint256"
        },
        {
          "internalType": "bytes",
          "name": "data",
          "type": "bytes"
        }
      ],
      "name": "safeTransferFrom",
      "outputs": [],
      "stateMutability": "nonpayable",
      "type": "function"
    },
    {
      "inputs": [
        {
          "internalType": "address",
          "name": "operator",
          "type": "address"
        },
        {
          "internalType": "bool",
          "name": "approved",
          "type": "bool"
        }
      ],
      "name": "setApprovalForAll",
      "outputs": [],
      "stateMutability": "nonpayable",
      "type": "function"
    },
    {
      "inputs": [
        {
          "internalType": "uint256",
          "name": "tokenId_",
          "type": "uint256"
        },
        {
          "internalType": "string",
          "name": "encryptKey_",
          "type": "string"
        }
      ],
      "name": "setEncryptKey",
      "outputs": [],
      "stateMutability": "nonpayable",
      "type": "function"
    },
    {
      "inputs": [
        {
          "internalType": "address",
          "name": "operator",
          "type": "address"
        },
        {
          "internalType": "bool",
          "name": "approved",
          "type": "bool"
        }
      ],
      "name": "setLockApprovalForAll",
      "outputs": [],
      "stateMutability": "nonpayable",
      "type": "function"
    },
    {
      "inputs": [],
      "name": "symbol",
      "outputs": [
        {
          "internalType": "string",
          "name": "",
          "type": "string"
        }
      ],
      "stateMutability": "view",
      "type": "function"
    },
    {
      "inputs": [
        {
          "internalType": "uint256",
          "name": "tokenId_",
          "type": "uint256"
        },
        {
          "internalType": "string",
          "name": "content_",
          "type": "string"
        },
        {
          "internalType": "address",
          "name": "newOwner_",
          "type": "address"
        }
      ],
      "name": "transferEncryptedContent",
      "outputs": [],
      "stateMutability": "nonpayable",
      "type": "function"
    },
    {
      "inputs": [
        {
          "internalType": "address",
          "name": "from",
          "type": "address"
        },
        {
          "internalType": "address",
          "name": "to",
          "type": "address"
        },
        {
          "internalType": "uint256",
          "name": "tokenId",
          "type": "uint256"
        }
      ],
      "name": "transferFrom",
      "outputs": [],
      "stateMutability": "nonpayable",
      "type": "function"
    },
    {
      "inputs": [
        {
          "internalType": "address",
          "name": "newOwner",
          "type": "address"
        }
      ],
      "name": "transferOwnership",
      "outputs": [],
      "stateMutability": "nonpayable",
      "type": "function"
    },
    {
      "inputs": [
        {
          "internalType": "address",
          "name": "from",
          "type": "address"
        },
        {
          "internalType": "uint256",
          "name": "tokenId",
          "type": "uint256"
        }
      ],
      "name": "unlockFrom",
      "outputs": [],
      "stateMutability": "nonpayable",
      "type": "function"
    },
    {
      "inputs": [
        {
          "internalType": "address",
          "name": "marketAddress_",
          "type": "address"
        },
        {
          "internalType": "address",
          "name": "amberfiStorageAddress_",
          "type": "address"
        },
        {
          "internalType": "address",
          "name": "trustedForwarder_",
          "type": "address"
        },
        {
          "internalType": "string",
          "name": "name_",
          "type": "string"
        },
        {
          "internalType": "string",
          "name": "symbol_",
          "type": "string"
        }
      ],
      "name": "initialize",
      "outputs": [],
      "stateMutability": "nonpayable",
      "type": "function"
    },
    {
      "inputs": [
        {
          "internalType": "address",
          "name": "to_",
          "type": "address"
        },
        {
          "internalType": "uint256",
          "name": "tokenId_",
          "type": "uint256"
        },
        {
          "internalType": "address",
          "name": "royaltyRecipient_",
          "type": "address"
        },
        {
          "internalType": "uint96",
          "name": "royaltyValue_",
          "type": "uint96"
        },
        {
          "internalType": "string",
          "name": "tokenUri_",
          "type": "string"
        },
        {
          "internalType": "bool",
          "name": "",
          "type": "bool"
        },
        {
          "internalType": "string",
          "name": "contentUri_",
          "type": "string"
        },
        {
          "internalType": "string",
          "name": "encryptKey_",
          "type": "string"
        },
        {
          "internalType": "uint8",
          "name": "storageLocationId_",
          "type": "uint8"
        }
      ],
      "name": "mint",
      "outputs": [],
      "stateMutability": "nonpayable",
      "type": "function"
    },
    {
      "inputs": [
        {
          "internalType": "uint256",
          "name": "tokenId_",
          "type": "uint256"
        },
        {
          "internalType": "bool",
          "name": "isEncrypted_",
          "type": "bool"
        }
      ],
      "name": "setContentAsEncrypted",
      "outputs": [],
      "stateMutability": "nonpayable",
      "type": "function"
    },
    {
      "inputs": [
        {
          "internalType": "uint256",
          "name": "tokenId_",
          "type": "uint256"
        }
      ],
      "name": "getContentURI",
      "outputs": [
        {
          "internalType": "string",
          "name": "",
          "type": "string"
        }
      ],
      "stateMutability": "view",
      "type": "function"
    },
    {
      "inputs": [
        {
          "internalType": "uint256",
          "name": "tokenId_",
          "type": "uint256"
        }
      ],
      "name": "getIsEncrypted",
      "outputs": [
        {
          "internalType": "bool",
          "name": "",
          "type": "bool"
        }
      ],
      "stateMutability": "view",
      "type": "function"
    },
    {
      "inputs": [
        {
          "internalType": "uint256",
          "name": "itemId_",
          "type": "uint256"
        },
        {
          "internalType": "string",
          "name": "encryptCid_",
          "type": "string"
        },
        {
          "internalType": "uint8",
          "name": "storageLocationId_",
          "type": "uint8"
        }
      ],
      "name": "encryptContent",
      "outputs": [],
      "stateMutability": "nonpayable",
      "type": "function"
    },
    {
      "inputs": [
        {
          "internalType": "address",
          "name": "forwarder_",
          "type": "address"
        }
      ],
      "name": "isTrustedForwarder",
      "outputs": [
        {
          "internalType": "bool",
          "name": "",
          "type": "bool"
        }
      ],
      "stateMutability": "view",
      "type": "function"
    },
    {
      "inputs": [
        {
          "internalType": "uint256",
          "name": "tokenId_",
          "type": "uint256"
        },
        {
          "internalType": "string",
          "name": "content_",
          "type": "string"
        }
      ],
      "name": "setContentURI",
      "outputs": [],
      "stateMutability": "nonpayable",
      "type": "function"
    },
    {
      "inputs": [
        {
          "internalType": "uint256",
          "name": "itemId_",
          "type": "uint256"
        },
        {
          "internalType": "string",
          "name": "tempCid_",
          "type": "string"
        },
        {
          "internalType": "string",
          "name": "cid_",
          "type": "string"
        },
        {
          "internalType": "string",
          "name": "",
          "type": "string"
        },
        {
          "internalType": "enum AmberfiCallbackUpgradeable.Status",
          "name": "",
          "type": "uint8"
        }
      ],
      "name": "setContent",
      "outputs": [],
      "stateMutability": "nonpayable",
      "type": "function"
    },
    {
      "inputs": [
        {
          "internalType": "uint256",
          "name": "tokenId_",
          "type": "uint256"
        },
        {
          "internalType": "uint8",
          "name": "storageLocationId_",
          "type": "uint8"
        },
        {
          "internalType": "bool",
          "name": "isEncrypted_",
          "type": "bool"
        },
        {
          "internalType": "string",
          "name": "hashVerify_",
          "type": "string"
        },
        {
          "internalType": "string",
          "name": "content_",
          "type": "string"
        }
      ],
      "name": "setContent",
      "outputs": [],
      "stateMutability": "nonpayable",
      "type": "function"
    },
    {
      "inputs": [
        {
          "internalType": "bytes4",
          "name": "interfaceId_",
          "type": "bytes4"
        }
      ],
      "name": "supportsInterface",
      "outputs": [
        {
          "internalType": "bool",
          "name": "",
          "type": "bool"
        }
      ],
      "stateMutability": "view",
      "type": "function"
    },
    {
      "inputs": [
        {
          "internalType": "uint256",
          "name": "tokenId",
          "type": "uint256"
        }
      ],
      "name": "tokenURI",
      "outputs": [
        {
          "internalType": "string",
          "name": "",
          "type": "string"
        }
      ],
      "stateMutability": "view",
      "type": "function"
    }
  ],
  "bytecode": "0x6080806040523461001657613d31908161001c8239f35b600080fdfe608080604052600436101561001357600080fd5b600090813560e01c90816301ffc9a714612ae05750806305b42c2714612a5957806306fdde03146129b6578063081812fc14612997578063095ea7b314612820578063121cba1914612801578063179a9c0f1461266f57806323b872dd146126485780632624739414612506578063278d0fd9146124dc5780632a55205a14612416578063352f9882146123ea578063393febfa146122d457806342842e0e1461229f57806342966c681461211c5780634ce17b86146120fd5780634def0453146120b05780634e1e488014611e4657806350c0bc5814611c635780635493f09a146119b0578063572b6c05146119795780636352211e1461194857806370a08231146118b2578063715018a6146118675780637cc53570146117cd57806383b43589146113715780638da5cb5b1461134857806391c79cd7146112f857806395623641146112ce57806395d89b411461120257806399b7c401146111c5578063a22cb46514611157578063a7ba00e714610b8f578063b88d4fde14610afe578063c87b56dd14610ac6578063cd4bf1511461057c578063dcec329414610552578063e985e9c5146104fe578063f03109fa1461037e578063f2fde38b146102ed578063f4bbcb291461021a5763f6aacfb1146101ef57600080fd5b3461021757602036600319011261021757602061020d600435613b62565b6040519015158152f35b80fd5b503461021757604036600319011261021757610234612c6f565b61023c612e02565b61024461358f565b6001600160a01b039283169216908183146102a85760207fbb3b2937fc41058c97e1ad0d0bbac3c664894dd823924eb7717d814fe700f0349183865260cb82526040862085600052825261029c81604060002061330c565b6040519015158152a380f35b60405162461bcd60e51b815260206004820152601f60248201527f4552433732314c3a206c6f636b20617070726f766520746f2063616c6c6572006044820152606490fd5b503461021757602036600319011261021757610307612c6f565b61030f612e11565b6001600160a01b0381161561032a5761032790612e74565b80f35b60405162461bcd60e51b815260206004820152602660248201527f4f776e61626c653a206e6577206f776e657220697320746865207a65726f206160448201526564647265737360d01b6064820152608490fd5b5034610217576003196060368201126104fa57600435906024356001600160401b0381116104f6576103b4903690600401612ce6565b926044359160ff83168093036104f157859460018060a01b03948561022c5416946103de85613977565b90863b156104ed57610427610418938a956040519788968796631e147cfd60e31b88528b6004890152608060248901526084880190612c2f565b928684030160448701526135b4565b906064830152038183875af19081156104e25785916104c9575b505061044b61358f565b9161045582613977565b93813b156104c55785809461049360405197889687958694630385fd8b60e61b86521660048501526024840152608060448401526084830190612c2f565b82606483015203925af180156104ba576104aa5750f35b6104b390612d5f565b6102175780f35b6040513d84823e3d90fd5b8580fd5b6104d290612d5f565b6104dd578338610441565b505050fd5b6040513d87823e3d90fd5b8880fd5b600080fd5b8380fd5b5080fd5b503461021757604036600319011261021757610518612c6f565b6040610522612c9b565b9260018060a01b038093168152609c602052209116600052602052602060ff604060002054166040519015158152f35b5034610217576020366003190112610217576040602091600435815260c983522054604051908152f35b50346102175760a0366003190112610217576024803560ff811681036104f1576044351515604435036104f1576064356001600160401b0381116104f6576105c8903690600401612ce6565b906084356001600160401b0381116104c5576105e8903690600401612ce6565b6004358752610130602052604087209460ff60046040519761060989612d13565b8054895260018101546001600160a01b03811660208b015260a01c831660408a015261063760028201612f52565b60608a015261064860038201612f52565b60808a0152015416151560a087015260208601516001600160a01b03168015908115610aac575b5015610a6a57610680368385612dcb565b606087015190511580159182610a60575b8215610a47575b8215610a2c575b5050156109c757604435151560a087015260ff1660408601526106da92916106c8913691612dcb565b60608501526080840151923691612dcb565b60443590816109bc575b816109b1575b5061093f575b5060208101516001600160a01b031615610924575b60043583526101306020526040832091815183556001830160018060a01b0360208401511681549060ff60a01b604086015160a01b169160018060a81b0319161717905560028301606083015180519060018060401b038211610911578190610778826107728654612f18565b8661354a565b602090601f83116001146108ad5788926108a2575b50508160011b916000199060031b1c19161790555b6080820151805160038501929091906001600160401b03831161089057506107d4826107ce8554612f18565b8561354a565b602090601f831160011461082257928260a0936103279796936004968a92610817575b50508160011b916000199060031b1c19161790555b01511515910161330c565b0151905038806107f7565b838752602087209190601f198416885b818110610878575093610327979693600496936001938360a0981061085f575b505050811b01905561080c565b015160001960f88460031b161c19169055388080610852565b92936020600181928786015181550195019301610832565b634e487b7160e01b8752604160045286fd5b01519050388061078d565b848952602089209250601f198416895b8181106108f957509084600195949392106108e0575b505050811b0190556107a2565b015160001960f88460031b161c191690553880806108d3565b929360206001819287860151815501950193016108bd565b634e487b7160e01b875260416004528387fd5b6001600160a01b0361093461358f565b166020820152610705565b5161094a57386106f0565b60405162461bcd60e51b815260206004820152603a818401527f416d6265726669456e6372797074696f6e3a2043616e2774206368616e6765206044820152793430b9b4103b30b63ab29037b31036b4b73a32b2103a37b5b2b760311b6064820152608490fd5b9050511515386106ea565b8351151591506106e4565b60405162461bcd60e51b8152602060048201526038818901527f416d6265726669456e6372797074696f6e3a20436f6e74656e742073746f7261604482015277033b29031b0b713ba1031329037bb32b93bb934ba3a32b7160451b6064820152608490fd5b511515915081610a3f575b50388061069f565b905038610a37565b80925051151580610a59575b91610698565b5080610a53565b8051159250610691565b60405162461bcd60e51b815260206004820152601b818901527a082dac4cae4ccd28adcc6e4f2e0e8d2dedc7440a8dede40d0d2ced602b1b6044820152606490fd5b90506001600160a01b03610abe61358f565b16143861066f565b503461021757602036600319011261021757610afa610ae6600435613977565b604051918291602083526020830190612c2f565b0390f35b503461021757608036600319011261021757610b18612c6f565b610b20612c9b565b90606435906044356001600160401b038311610b8b5736602384011215610b8b5761032793610b5c610b86943690602481600401359101612dcb565b92610b76610b7184610b6c61358f565b6130fe565b613024565b610b8183838361316c565b613462565b6130da565b8480fd5b50346102175761012036600319011261021757610baa612c6f565b602435610bb5612c85565b6064356001600160601b0381168103610b8b576001600160401b0360843581811161115357610be8903690600401612ce6565b60a4358015150361114f5760c4358381116104ed57610c0b903690600401612ce6565b9360e43590811161114b57610c24903690600401612ce6565b9091610104359560ff871687036111475760026101f754146111025760026101f755896110e857985b610c568161331d565b15610c6c57506102296001815401809155610c4d565b98610c7f610c8693610c8c955b8c613b75565b3691612dcb565b87613723565b806110cf575b6001600160601b038416610fb4575b61022b546001600160a01b0390811690610cb961358f565b16818114610f7357808a52609c60205260408a20828b5260205260408a20600160ff19825416179055600080516020613c3c833981519152602060405160018152a36001600160a01b038716610f6d57610d1161358f565b60405190610d1e82612d72565b8982526001600160a01b03811615610f2957610d398861331d565b610ee557610d4688613b62565b610ea6576001600160a01b0381168a52609a60205260408a208054600181018111610e92576001019055878a52609960205260408a2080546001600160a01b0319166001600160a01b0383169081179091558a949392610dc192610b86928b9190829089600080516020613c9c8339815191528180a461333a565b61022c546001600160a01b031690813b156104f6578388610e089660ff60405198899788968795630ef14b2960e01b875260048701526060602487015260648601916135b4565b9116604483015203925af18015610e8757610e61575b50604080519384526001600160601b0390911660208401526001600160a01b039182169390911691600080516020613cdc8339815191529190a360016101f75580f35b9160409195610e7e600080516020613cdc83398151915294612d5f565b95915091610e1e565b6040513d88823e3d90fd5b634e487b7160e01b8c52601160045260248cfd5b60405162461bcd60e51b815260206004820152602480820152600080516020613c5c83398151915260448201526318dad95960e21b6064820152608490fd5b60405162461bcd60e51b815260206004820152601c60248201527b115490cdcc8c4e881d1bdad95b88185b1c9958591e481b5a5b9d195960221b6044820152606490fd5b606460405162461bcd60e51b815260206004820152602060248201527f4552433732313a206d696e7420746f20746865207a65726f20616464726573736044820152fd5b86610d11565b60405162461bcd60e51b815260206004820152601960248201527822a9219b99189d1030b8383937bb32903a379031b0b63632b960391b6044820152606490fd5b6001600160a01b038581166110c957610fcb61358f565b6127106001600160601b0387161161107157811690811561102e5760405191610ff383612d44565b82526001600160601b0386166020808401918252898c52610163905260408b209251905160a01b6001600160a01b0319169116179055610ca1565b60405162461bcd60e51b815260206004820152601b60248201527a455243323938313a20496e76616c696420706172616d657465727360281b6044820152606490fd5b60405162461bcd60e51b815260206004820152602a60248201527f455243323938313a20726f79616c7479206665652077696c6c206578636565646044820152692073616c65507269636560b01b6064820152608490fd5b85610fcb565b6110e36110dd368385612dcb565b876135d5565b610c92565b610c7f610c8693610c8c9561022960018154019055610c79565b60405162461bcd60e51b815260206004820152601f60248201527f5265656e7472616e637947756172643a207265656e7472616e742063616c6c006044820152606490fd5b8b80fd5b8980fd5b8780fd5b8680fd5b503461021757604036600319011261021757611171612c6f565b611179612e02565b61118161358f565b6001600160a01b03928316921690818314610f73576020600080516020613c3c83398151915291838652609c825260408620858752825261029c816040882061330c565b5034610217576040366003190112610217576024356001600160401b0381116104fa576111f9610327913690600401612ce6565b90600435613b75565b50346102175780600319360112610217576040518160985461122381612f18565b808452906001908181169081156112a6575060011461124d575b610afa84610ae681880382612d8d565b60988352602094507f2237a976fa961f5921fd19f2b03c925c725d77b20ce8f790c19709c03de4d8145b8284106112935750505081610afa93610ae6928201019361123d565b8054858501870152928501928101611277565b610afa9650610ae69450602092508593915060ff191682840152151560051b8201019361123d565b503461021757806003193601126102175761022b546040516001600160a01b039091168152602090f35b50346102175760403660031901126102175760ff6040602092611319612c6f565b611321612c9b565b6001600160a01b03918216835260cb86528383209116825284522054604051911615158152f35b50346102175780600319360112610217576033546040516001600160a01b039091168152602090f35b50346102175760a03660031901126102175761138b612c6f565b611393612c9b565b9061139c612c85565b6001600160401b0391906064358381116104c5576113be903690600401612ce6565b94909260843585811161114f576113d9903690600401612ce6565b88969196549760ff97888a60081c1615998a809b6117c1575b80156117ab575b1561174f578a9861142b938d6114239360019e8f60ff19831617835561173d575b50503691612dcb565b923691612dcb565b611443888b5460081c1661143e816134d3565b6134d3565b81518381116117295780611458609754612f18565b938c601f958681116116fa575b50506020908d868411600114611699579261168e575b5050600019600383901b1c1916908a1b176097555b805192831161167a579082916114a7609854612f18565b828111611641575b5060209183116001146115e0578a926115d5575b5050600019600383901b1c191690871b176098555b6114fd85885460081c166114eb816134d3565b6114f4816134d3565b61143e816134d3565b61150d61150861358f565b612e74565b6115218754958660081c1661143e816134d3565b6001600160a01b0390811691821580156115cb575b80156115c1575b6115af5760018060a01b03199261022b90848254161790558161022c91168382541617905561022a921690825416179055611576578280f35b61ff00191682556040519081527f7f26b83ff96e1f2b6a682f133852f6798a09c465da95921460cefb384740249890602090a138808280f35b6040516317d69aff60e11b8152600490fd5b508184161561153d565b5081811615611536565b0151905038806114c3565b60988b52818b208a94509190601f1984168c5b81811061162957508411611610575b505050811b016098556114d8565b015160001960f88460031b161c19169055388080611602565b8284015185558c9690940193602093840193016115f3565b61166b9060988d5260208d208480870160051c82019260208810611671575b0160051c0190613533565b386114af565b92508192611660565b634e487b7160e01b8a52604160045260248afd5b01519050388061147b565b91908d9450601f19841660978452828420935b8181106116e2575084116116c9575b505050811b01609755611490565b015160001960f88460031b161c191690553880806116bb565b8284015185558f9690940193602093840193016116ac565b60208260976117229452208780860160051c82019260208710611671570160051c0190613533565b8c38611465565b634e487b7160e01b8b52604160045260248bfd5b61ffff19166101011790558d3861141a565b60405162461bcd60e51b815260206004820152602e60248201527f496e697469616c697a61626c653a20636f6e747261637420697320616c72656160448201526d191e481a5b9a5d1a585b1a5e995960921b6064820152608490fd5b50303b1580156113f9575060018a8216146113f9565b5060018a8216106113f2565b5034610217576020366003190112610217576040610afa916004358152610130602052206040516117fd81612d13565b8154815260018201546001600160a01b038116602083015260ff60a091821c81166040840152600461183160028601612f52565b946060850195865261184560038201612f52565b6080860152015416151591015251604051918291602083526020830190612c2f565b5034610217578060031936011261021757611880612e11565b603380546001600160a01b0319811690915581906001600160a01b0316600080516020613c7c8339815191528280a380f35b5034610217576020366003190112610217576001600160a01b036118d4612c6f565b1680156118f1578160409160209352609a83522054604051908152f35b60405162461bcd60e51b815260206004820152602960248201527f4552433732313a2061646472657373207a65726f206973206e6f7420612076616044820152683634b21037bbb732b960b91b6064820152608490fd5b5034610217576020366003190112610217576020611967600435612ef2565b6040516001600160a01b039091168152f35b5034610217576020366003190112610217576020611995612c6f565b61022a546040516001600160a01b0392831691909216148152f35b5034610217576060366003190112610217576119ca612c6f565b602435906044356119d961358f565b916119e38461331d565b15611c03576001600160a01b039283806119fc87612ef2565b169116818114918215611be0575b508115611bcc575b5015611b705742821115611b05578290611a34611a2e86613b62565b156139aa565b611a3c61358f565b9082611a4787612ef2565b91169485911603611ab5577f967ad762aa9070ada8db64577288e214771e89667066ae38e8750cb8a86c54299160209186885260c98352846040892055611a8c61358f565b60ca84526040808a2080546001600160a01b03191692851692909217909155519485521692a480f35b60405162461bcd60e51b815260206004820152602260248201527f4552433732314c3a206c6f636b2066726f6d20696e636f7272656374206f776e60448201526132b960f11b6064820152608490fd5b60405162461bcd60e51b815260206004820152603f60248201527f4552433732314c3a20657870697265642074696d65206d75737420626520677260448201527f6561746572207468616e2063757272656e7420626c6f636b206e756d626572006064820152608490fd5b60405162461bcd60e51b815260206004820152602e60248201527f4552433732314c3a206c6f636b2063616c6c6572206973206e6f74206f776e6560448201526d1c881b9bdc88185c1c1c9bdd995960921b6064820152608490fd5b905083611bd8866139f1565b161438611a12565b909150865260cb6020526040862081875260205260ff6040872054169038611a0a565b60405162461bcd60e51b815260206004820152603260248201527f4552433732314c3a206c6f636b206f70657261746f7220717565727920666f72604482015271103737b732bc34b9ba32b73a103a37b5b2b760711b6064820152608490fd5b5034610217576060366003190112610217576004356024356001600160401b038082116104f657611c9a60ff923690600401612ce6565b611ca5929192612c85565b94611cae612e11565b808752610130926020928484526040892095604051611ccc81612d13565b87548152600197888101549160a08b60048a840194600180851b039e8f978881168852851c166040860152611d0360028201612f52565b6060860152611d1460038201612f52565b60808601520154161515910152511688611d2c61358f565b1603611e0657838a52858552600260408b200192821161167a578190611d56826107728654612f18565b8a90601f8311600114611da7578b92611d9c575b5050600019600383901b1c191690861b1790555b865252604084200180546001600160a01b0319169190921617905580f35b013590503880611d6a565b848c52868c2089945091601f1984168d5b89828210611df05750508411611dd6575b505050811b019055611d7e565b0135600019600384901b60f8161c19169055388080611dc9565b8385013586558c97909501949283019201611db8565b60405162461bcd60e51b8152600481018690526018602482015277082dac4cae4ccd286dedce8cadce87440a8dede40d0d2ced60431b6044820152606490fd5b503461021757604036600319011261021757600435611e63612e02565b818352610130916020928084526040852060405194611e8186612d13565b81548652600190818301548188019060018060a01b03808216835260ff60408b019260a01c168252611eb560028701612f52565b9660608b01978852611eca6003809801612f52565b9860808c01998a5260a08c019a15158b528c52845260408b2099518a55848a0192511682549160ff60a01b905160a01b169160018060a81b0319161717905560028701935193845160018060401b0395868211611729578190611f31826107728654612f18565b8490601f8311600114612052578c92612047575b505060001982871b1c191690841b1790555b8287019451805194851161203357611f7985611f738854612f18565b8861354a565b81601f8611600114611fc157509284809361032799989693600498968c95611fb6575b50501b92600019911b1c19161790555b511515910161330c565b015193503880611f9c565b9294939190601f198516878b52848b20948b905b82821061201c57505091859391600498966103279b9a98969410612002575b50505050811b019055611fac565b01519060f884600019921b161c1916905538808080611ff4565b808986988294978701518155019701940190611fd5565b634e487b7160e01b89526041600452602489fd5b015190503880611f45565b848d52858d208794509190601f1984168e5b8882821061209a5750508411612082575b505050811b019055611f57565b015160001983891b60f8161c19169055388080612075565b8385015186558a97909501949384019301612064565b5034610217576040366003190112610217576024356001600160401b0381116104fa57366023820112156104fa576120f5610327913690602481600401359101612dcb565b600435613723565b50346102175760203660031901126102175760206119676004356139f1565b503461021757602090816003193601126102175760043591612143610b7184610b6c61358f565b61214c83612ef2565b5061215683612ef2565b61215f84613b62565b6122605761216c846132ca565b6001600160a01b0316808352609a825260408320805490949190600019810190811161224c57849555818452609983528184604081209260018060a01b031993848154169055600080516020613c9c8339815191528280a460c9835283604081205560ca83526040842090815416905560fe82526121ed6040842054612f18565b6121f5575050f35b825260fe8152604082209061220a8254612f18565b908161221557505050f35b81601f859311600114612229575050505580f35b83835281832061224491601f0160051c810190600101613533565b812091555580f35b634e487b7160e01b85526011600452602485fd5b60405162461bcd60e51b815260048101839052602480820152600080516020613c5c83398151915260448201526318dad95960e21b6064820152608490fd5b503461021757610327610b866122b436612cb1565b90604051926122c284612d72565b868452610b76610b7184610b6c61358f565b50346102175760a0366003190112610217576001600160401b036004356024358281116104f657612309903690600401612ce6565b906044358481116104c557612322903690600401612ce6565b9290946064359081116111535761233d903690600401612ce6565b5050600560843510156104c55761022b54604080516339d9d67360e11b81526004810187905260248101919091529260209284926001600160a01b0316918391829161238d9160448401916135b4565b03915afa80156104e2576123b2575b50610327926123ac913691612dcb565b906135d5565b6020813d82116123e2575b816123ca60209383612d8d565b81010312610b8b576005905110156104f6573861239c565b3d91506123bd565b503461021757602036600319011261021757610ae66040610afa9260043581526101c560205220612f52565b503461021757604036600319011261021757602435600435825261016360205260408220916040519261244884612d44565b546001600160a01b0380821680865260a09290921c6020860152939190156124b7575b60208201516001600160601b031683810293801590850490911417156124a35750604092612710915116918351928352046020820152f35b634e487b7160e01b81526011600452602490fd5b90506040516124c581612d44565b61016254848116825260a01c60208201529061246b565b503461021757806003193601126102175761022c546040516001600160a01b039091168152602090f35b503461021757604036600319011261021757612520612c6f565b6024359061252d82613a7a565b6001600160a01b039190828061254161358f565b169116036125ef5781908161255585612ef2565b9116928391160361259e5782845260c960205283604081205561257661358f565b167fe6e0ef9cd056ca98561ca60e347ada61e1ede2f1142a078951b7a52e1e508e608480a480f35b60405162461bcd60e51b8152602060048201526024808201527f4552433732314c3a20756e6c6f636b2066726f6d20696e636f7272656374206f6044820152633bb732b960e11b6064820152608490fd5b60405162461bcd60e51b815260206004820152602b60248201527f4552433732314c3a20756e6c6f636b2063616c6c6572206973206e6f74206c6f60448201526a31b59037b832b930ba37b960a91b6064820152608490fd5b50346102175761032761265a36612cb1565b9161266a610b7184610b6c61358f565b61316c565b503461021757604036600319011261021757612689612c6f565b60243590612699611a2e83613b62565b6001600160a01b039081806126ad85612ef2565b169116918183146127ac5781816126c261358f565b1614908115612780575b50156127155782845260ca6020526040842080546001600160a01b031916831790557fbd5378dc6d0395c338ca88b324966808490d6a9983bbc7a0f7a8429a44a317628480a480f35b60405162461bcd60e51b815260206004820152603e60248201527f4552433732314c3a206c6f636b20617070726f76652063616c6c65722069732060448201527f6e6f74206f776e6572206e6f7220617070726f76656420666f7220616c6c00006064820152608490fd5b905061278a61358f565b9082865260cb602052604086209116855260205260ff604085205416386126cc565b60405162461bcd60e51b815260206004820152602760248201527f4552433732314c3a206c6f636b20617070726f76616c20746f2063757272656e6044820152663a1037bbb732b960c91b6064820152608490fd5b5034610217576020366003190112610217576020611967600435613a7a565b50346102175760403660031901126102175761283a612c6f565b602435906001600160a01b03808061285185612ef2565b1692169180831461294857808261286661358f565b161490811561291c575b50156128b157828452609b6020526040842080546001600160a01b0319168317905561289b83612ef2565b16600080516020613cbc8339815191528480a480f35b60405162461bcd60e51b815260206004820152603e60248201527f4552433732313a20617070726f76652063616c6c6572206973206e6f7420746f60448201527f6b656e206f776e6572206e6f7220617070726f76656420666f7220616c6c00006064820152608490fd5b905061292661358f565b908552609c60205281604086209116855260205260ff60408520541638612870565b60405162461bcd60e51b815260206004820152602160248201527f4552433732313a20617070726f76616c20746f2063757272656e74206f776e656044820152603960f91b6064820152608490fd5b5034610217576020366003190112610217576020611967600435612ff8565b5034610217578060031936011261021757604051816097546129d781612f18565b808452906001908181169081156112a65750600114612a0057610afa84610ae681880382612d8d565b60978352602094507f354a83ed9988f79f6038d4c7a7dadbad8af32f4ad6df893e0e5807a1b1944ff95b828410612a465750505081610afa93610ae6928201019361123d565b8054858501870152928501928101612a2a565b50346102175760203660031901126102175760a06040602092600435815261013084522060ff600460405192612a8e84612d13565b80548452826001820154600180881b03811688870152861c166040850152612ab860028201612f52565b6060850152612ac960038201612f52565b608085015201541615159182910152604051908152f35b9050346104fa5760203660031901126104fa5760043563ffffffff60e01b8116809103612c2b5760209250632baae9fd60e01b8114908115612c1a575b8115612c09575b8115612bf8575b8115612b39575b5015158152f35b632b59e54960e21b811491508115612b53575b5038612b32565b63c8f12ba760e01b811491508115612b6d575b5038612b4c565b63152a902d60e11b811491508115612b87575b5038612b66565b6301ffc9a760e01b811491508115612ba1575b5038612b80565b63a80646d160e01b8114918215612bbb575b505038612b9a565b6380ac58cd60e01b82149250908215612be7575b508115612bdf575b503880612bb3565b905038612bd7565b635b5e139f60e01b14915038612bcf565b632b59e54960e21b81149150612b2b565b63c8f12ba760e01b81149150612b24565b630299172560e61b81149150612b1d565b8280fd5b919082519283825260005b848110612c5b575050826000602080949584010152601f8019910116010190565b602081830181015184830182015201612c3a565b600435906001600160a01b03821682036104f157565b604435906001600160a01b03821682036104f157565b602435906001600160a01b03821682036104f157565b60609060031901126104f1576001600160a01b039060043582811681036104f1579160243590811681036104f1579060443590565b9181601f840112156104f1578235916001600160401b0383116104f157602083818601950101116104f157565b60c081019081106001600160401b03821117612d2e57604052565b634e487b7160e01b600052604160045260246000fd5b604081019081106001600160401b03821117612d2e57604052565b6001600160401b038111612d2e57604052565b602081019081106001600160401b03821117612d2e57604052565b601f909101601f19168101906001600160401b03821190821017612d2e57604052565b6001600160401b038111612d2e57601f01601f191660200190565b929192612dd782612db0565b91612de56040519384612d8d565b8294818452818301116104f1578281602093846000960137010152565b6024359081151582036104f157565b6033546001600160a01b0390811690612e2861358f565b1603612e3057565b606460405162461bcd60e51b815260206004820152602060248201527f4f776e61626c653a2063616c6c6572206973206e6f7420746865206f776e65726044820152fd5b603380546001600160a01b039283166001600160a01b031982168117909255909116600080516020613c7c833981519152600080a3565b15612eb257565b60405162461bcd60e51b8152602060048201526018602482015277115490cdcc8c4e881a5b9d985b1a59081d1bdad95b88125160421b6044820152606490fd5b6000908152609960205260409020546001600160a01b0316612f15811515612eab565b90565b90600182811c92168015612f48575b6020831014612f3257565b634e487b7160e01b600052602260045260246000fd5b91607f1691612f27565b9060405191826000825492612f6684612f18565b908184526001948581169081600014612fd55750600114612f92575b5050612f9092500383612d8d565b565b9093915060005260209081600020936000915b818310612fbd575050612f9093508201013880612f82565b85548884018501529485019487945091830191612fa5565b915050612f9094506020925060ff191682840152151560051b8201013880612f82565b6130096130048261331d565b612eab565b6000908152609b60205260409020546001600160a01b031690565b1561302b57565b60405162461bcd60e51b815260206004820152602e60248201527f4552433732313a2063616c6c6572206973206e6f7420746f6b656e206f776e6560448201526d1c881b9bdc88185c1c1c9bdd995960921b6064820152608490fd5b60809060208152603260208201527f4552433732313a207472616e7366657220746f206e6f6e20455243373231526560408201527131b2b4bb32b91034b6b83632b6b2b73a32b960711b60608201520190565b156130e157565b60405162461bcd60e51b8152806130fa60048201613087565b0390fd5b906001600160a01b03808061311284612ef2565b16931691838314938415613145575b50831561312f575b50505090565b61313b91929350612ff8565b1614388080613129565b909350600052609c60205260406000208260005260205260ff604060002054169238613121565b61317583612ef2565b6001600160a01b039182169290821683900361327757169081156132265761319c83613b62565b610ea6576131a9836132ca565b6000818152609a6020526040812080546000198101919082116132125755828152609a6020526040812080549060018201809211613212575583815260996020526040812080546001600160a01b03191684179055600080516020613c9c8339815191529080a4565b634e487b7160e01b83526011600452602483fd5b60405162461bcd60e51b8152602060048201526024808201527f4552433732313a207472616e7366657220746f20746865207a65726f206164646044820152637265737360e01b6064820152608490fd5b60405162461bcd60e51b815260206004820152602560248201527f4552433732313a207472616e736665722066726f6d20696e636f72726563742060448201526437bbb732b960d91b6064820152608490fd5b6000818152609b6020526040812080546001600160a01b03191690556001600160a01b036132f783612ef2565b16600080516020613cbc8339815191528280a4565b9060ff801983541691151516179055565b6000908152609960205260409020546001600160a01b0316151590565b9192600092909190803b156134585761339c94849161335761358f565b9060405180948193630a85bd0160e11b9788845260018060a01b0380921660048501528260248501526044840152608060648401528260209b8c976084830190612c2f565b0393165af1849181613418575b50613407575050503d6000146133ff573d6133c381612db0565b906133d16040519283612d8d565b81528091833d92013e5b805191826133fc5760405162461bcd60e51b8152806130fa60048201613087565b01fd5b5060606133db565b6001600160e01b0319161492509050565b9091508581813d8311613451575b6134308183612d8d565b81010312610b8b57516001600160e01b031981168103610b8b5790386133a9565b503d613426565b5050915050600190565b9293600093909291803b156134c85794849161339c9661348061358f565b946040519485938492630a85bd0160e11b9889855260018060a01b03928380921660048701521660248501526044840152608060648401528260209b8c976084830190612c2f565b505050915050600190565b156134da57565b60405162461bcd60e51b815260206004820152602b60248201527f496e697469616c697a61626c653a20636f6e7472616374206973206e6f74206960448201526a6e697469616c697a696e6760a81b6064820152608490fd5b81811061353e575050565b60008155600101613533565b9190601f811161355957505050565b612f90926000526020600020906020601f840160051c83019310613585575b601f0160051c0190613533565b9091508190613578565b61022a54336001600160a01b03909116036135b05736601319013560601c90565b3390565b908060209392818452848401376000828201840152601f01601f1916010190565b9190916135e18161331d565b156136c757600090815260fe602090815260408220845191949092906001600160401b0383116136b357613619836107728654612f18565b8591601f841160011461365257839495965092613647575b50508160011b916000199060031b1c1916179055565b015190503880613631565b9190601f1984169685845280842093905b88821061369b57505083600195969710613682575b505050811b019055565b015160001960f88460031b161c19169055388080613678565b80600185968294968601518155019501930190613663565b634e487b7160e01b82526041600452602482fd5b60405162461bcd60e51b815260206004820152602e60248201527f45524337323155524953746f726167653a2055524920736574206f66206e6f6e60448201526d32bc34b9ba32b73a103a37b5b2b760911b6064820152608490fd5b90600090828252610130906020938285526040842090604051958695869561374a87612d13565b84548752600193848601549084890192600160a01b6001900391828416855260408b019360a01c60ff1684526002890161378390612f52565b60608c0190815299600399613799818c01612f52565b9c6080019c8d526004015460ff169c60a0019c15158d528a5285528552604084209a518b55858b0192511682549160ff60a01b905160a01b1691600160a81b60019003191617179055600288019451948551600160401b600190039687821161396357819061380c826107728654612f18565b8590601f83116001146139055785926138fa575b505060001982881b1c191690851b1790555b83880195519081519586116138e6576138558661384f8954612f18565b8961354a565b82601f8711600114613890575094809381936004989693612f909b9a9895611fb65750501b92600019911b1c1916179055511515910161330c565b878252808220949695939291601f198716915b8282106138cf5750509185939160049896612f909b9a989694106120025750505050811b019055611fac565b8089869882949787015181550197019401906138a3565b634e487b7160e01b81526041600452602490fd5b015190503880613820565b8486528686208894509190601f198416875b8982821061394d5750508411613935575b505050811b019055613832565b0151600019838a1b60f8161c19169055388080613928565b8385015186558b97909501949384019301613917565b634e487b7160e01b84526041600452602484fd5b6139836130048261331d565b60005260fe6020526139986040600020612f52565b60006040516139a681612d72565b5290565b156139b157565b60405162461bcd60e51b8152602060048201526018602482015277115490cdcc8c530e881d1bdad95b881a5cc81b1bd8dad95960421b6044820152606490fd5b6139fa8161331d565b15613a1a57600090815260ca60205260409020546001600160a01b031690565b60405162461bcd60e51b815260206004820152603260248201527f4552433732314c3a206c6f636b20617070726f76656420717565727920666f72604482015271103737b732bc34b9ba32b73a103a37b5b2b760711b6064820152608490fd5b613a838161331d565b15613b0957613a9181613b62565b15613ab157600090815260ca60205260409020546001600160a01b031690565b60405162461bcd60e51b815260206004820152602a60248201527f4552433732314c3a206c6f636b657220717565727920666f72206e6f6e2d6c6f60448201526931b5b2b2103a37b5b2b760b11b6064820152608490fd5b60405162461bcd60e51b815260206004820152602b60248201527f4552433732314c3a206c6f636b657220717565727920666f72206e6f6e65786960448201526a39ba32b73a103a37b5b2b760a91b6064820152608490fd5b60005260c9602052604060002054421090565b929160009384526020936101c58552604081209260018060401b0383116136b357613ba4836107728654612f18565b81601f8411600114613bdb57839495965092613bd05750508160011b916000199060031b1c1916179055565b013590503880613631565b91601f1984169685845280842093905b888210613c2357505083600195969710613c0957505050811b019055565b0135600019600384901b60f8161c19169055388080613678565b80600184968294958701358155019501920190613beb56fe17307eab39ab6107e8899845ad3d59bd9653f200f220920489ca2b5937696c314552433732314c3a20746f6b656e207472616e73666572207768696c65206c6f8be0079c531659141344cd1fd0a4f28419497f9722a3daafe3b4186f6b6457e0ddf252ad1be2c89b69c2b068fc378daa952ba7f163c4a11628f55a4df523b3ef8c5be1e5ebec7d5bd14f71427d1e84f3dd0314c0f7b2291e5b200ac8c7c3b9251b8b625f0a69dc07152bddc32e174d5b9822bb88fe9981046bfcfbb373a9ac2ea26469706673582212208145e981f0fdb03be4c29576fac4abe2f9a3b845894803970870d6987d09a86964736f6c63430008110033",
  "immutableReferences": {},
  "source": "// SPDX-License-Identifier: MIT\npragma solidity ^0.8.0;\n\n// Openzeppelin\nimport \"@openzeppelin/contracts-upgradeable/security/ReentrancyGuardUpgradeable.sol\";\nimport \"@openzeppelin/contracts-upgradeable/token/ERC721/ERC721Upgradeable.sol\";\nimport \"@openzeppelin/contracts-upgradeable/token/ERC721/extensions/ERC721BurnableUpgradeable.sol\";\nimport \"@openzeppelin/contracts-upgradeable/token/ERC721/extensions/ERC721URIStorageUpgradeable.sol\";\nimport \"@openzeppelin/contracts-upgradeable/token/common/ERC2981Upgradeable.sol\";\nimport \"@openzeppelin/contracts-upgradeable/utils/CountersUpgradeable.sol\";\nimport \"@openzeppelin/contracts-upgradeable/utils/introspection/ERC165Upgradeable.sol\";\n// Callback\nimport \"../Callback/AmberfiCallbackUpgradeable.sol\";\n// ERC721 Lockable\nimport \"../ERC721/ERC721LockableUpgradeable.sol\";\n// ERC721 Storage Content\nimport \"../ERC721/ERC721TokenURIAmberfiStorageContentUpgradeable.sol\";\n// Key Storage\nimport \"../KeyStorage/AmberfiKeyStorageUpgradeable.sol\";\n// Storage\nimport \"../Storage/AmberfiStorage.sol\";\n// Interfaces\nimport \"../interfaces/IERC721FullAmberfiContentFactory.sol\";\n// Libraries\nimport \"../libs/AmberfiLib.sol\";\n\ncontract NFT is\n    Initializable,\n    ERC721Upgradeable,\n    ERC721LockableUpgradeable,\n    ERC721BurnableUpgradeable,\n    ERC721URIStorageUpgradeable,\n    ERC721TokenURIAmberfiStorageContentUpgradeable,\n    ERC2981Upgradeable,\n    IERC721FullAmberfiContentFactory,\n    AmberfiCallbackUpgradeable,\n    AmberfiKeyStorageUpgradeable,\n    ReentrancyGuardUpgradeable\n{\n    using CountersUpgradeable for CountersUpgradeable.Counter;\n\n    CountersUpgradeable.Counter private _tokenIdsCounter;\n    address private _trustedForwarder;\n\n    address public marketAddress;\n    address public amberfiStorageAddress;\n\n    event NFTMinted(\n        address indexed to,\n        uint256 tokenId,\n        address indexed royaltyRecipient,\n        uint96 royaltyValue\n    );\n\n    function initialize(\n        address marketAddress_,\n        address amberfiStorageAddress_,\n        address trustedForwarder_,\n        string calldata name_,\n        string calldata symbol_\n    ) public initializer {\n        __ERC721_init(name_, symbol_);\n        __AmberfiContent_init();\n        __AmberfiKeyStorage_init();\n\n        if (\n            marketAddress_ == address(0) ||\n            amberfiStorageAddress_ == address(0) ||\n            trustedForwarder_ == address(0)\n        ) {\n            revert AmberfiLib.NFT_ZeroAddress();\n        }\n\n        marketAddress = marketAddress_;\n        amberfiStorageAddress = amberfiStorageAddress_;\n        _trustedForwarder = trustedForwarder_;\n    }\n\n    function _beforeTokenTransfer(\n        address from,\n        address to,\n        uint256 tokenId\n    ) internal virtual override(ERC721Upgradeable, ERC721LockableUpgradeable) {\n        super._beforeTokenTransfer(from, to, tokenId);\n    }\n\n    function _burn(uint256 tokenId)\n        internal\n        override(\n            ERC721Upgradeable,\n            ERC721LockableUpgradeable,\n            ERC721URIStorageUpgradeable\n        )\n    {\n        super._burn(tokenId);\n    }\n\n    function _msgSender() internal view override returns (address sender) {\n        if (isTrustedForwarder(msg.sender)) {\n            // The assembly code is more direct than the Solidity version using `abi.decode`.\n            assembly {\n                sender := shr(96, calldataload(sub(calldatasize(), 20)))\n            }\n        } else {\n            return super._msgSender();\n        }\n    }\n\n    function _msgData() internal view override returns (bytes calldata) {\n        if (isTrustedForwarder(msg.sender)) {\n            return msg.data[:msg.data.length - 20];\n        } else {\n            return super._msgData();\n        }\n    }\n\n    function mint(\n        address to_,\n        uint256 tokenId_,\n        address royaltyRecipient_,\n        uint96 royaltyValue_,\n        string calldata tokenUri_,\n        bool,\n        string calldata contentUri_,\n        string calldata encryptKey_,\n        uint8 storageLocationId_\n    ) external override(IERC721FullAmberfiContentFactory) nonReentrant {\n        uint256 newItemId = tokenId_;\n        if (tokenId_ == 0) {\n            while (_exists(newItemId)) {\n                _tokenIdsCounter.increment();\n                newItemId = _tokenIdsCounter.current();\n            }\n        } else {\n            _tokenIdsCounter.increment();\n        }\n\n        setEncryptKey(newItemId, encryptKey_);\n        setContentURI(newItemId, contentUri_);\n\n        if (bytes(tokenUri_).length > 0) {\n            _setTokenURI(newItemId, tokenUri_);\n        }\n\n        if (royaltyValue_ > 0) {\n            _setTokenRoyalty(\n                newItemId,\n                royaltyRecipient_ == address(0)\n                    ? _msgSender()\n                    : royaltyRecipient_,\n                royaltyValue_\n            );\n        }\n\n        setApprovalForAll(marketAddress, true);\n\n        _safeMint(to_ == address(0x0) ? _msgSender() : to_, newItemId, \"\");\n\n        AmberfiStorage(address(amberfiStorageAddress)).registerStorage(\n            newItemId,\n            tokenUri_,\n            storageLocationId_\n        );\n\n        emit NFTMinted(to_, newItemId, royaltyRecipient_, royaltyValue_);\n    }\n\n    /**\n     * @dev Sets content URI,\n     * @param tokenId_ the token id fir which we register the royalties\n     * @param isEncrypted_ Content location\n     */\n    function setContentAsEncrypted(uint256 tokenId_, bool isEncrypted_) public {\n        Content memory contentObj = _contents[tokenId_];\n        contentObj.isEncrypted = isEncrypted_;\n        _contents[tokenId_] = contentObj;\n    }\n\n    /**\n     * @dev gets content URI\n     * @param tokenId_ the token id fir which we register the royalties\n     */\n    function getContentURI(uint256 tokenId_)\n        public\n        view\n        returns (string memory)\n    {\n        Content memory contentObj = _contents[tokenId_];\n        return contentObj.content;\n    }\n\n    /**\n     * @dev gets content URI\n     * @param tokenId_ the token id fir which we register the royalties\n     */\n    function getIsEncrypted(uint256 tokenId_) public view returns (bool) {\n        Content memory contentObj = _contents[tokenId_];\n        return contentObj.isEncrypted;\n    }\n\n    function encryptContent(\n        uint256 itemId_,\n        string calldata encryptCid_,\n        uint8 storageLocationId_\n    ) public override {\n        AmberfiStorage astorage = AmberfiStorage(\n            address(amberfiStorageAddress)\n        );\n        astorage.registerEncryptedStorage(\n            itemId_,\n            tokenURI(itemId_),\n            encryptCid_,\n            storageLocationId_\n        );\n        astorage.setStorageStatus(\n            _msgSender(),\n            itemId_,\n            tokenURI(itemId_),\n            AmberfiStorage.Status.Pending\n        );\n    }\n\n    /**\n     * @dev Check if forwarder is trusted forwarder\n     * @param forwarder_ (address) Forwarder address\n     * @return (bool) result\n     */\n    function isTrustedForwarder(address forwarder_) public view returns (bool) {\n        return forwarder_ == _trustedForwarder;\n    }\n\n    /**\n     * @dev Sets content URI\n     * @param tokenId_ the token id fir which we register the royalties\n     * @param content_ recipient of the royalties\n     */\n    function setContentURI(uint256 tokenId_, string memory content_) public {\n        Content memory contentObj = _contents[tokenId_];\n        contentObj.content = content_;\n        _contents[tokenId_] = contentObj;\n    }\n\n    function setContent(\n        uint256 itemId_,\n        string calldata tempCid_,\n        string calldata cid_,\n        string calldata,\n        Status\n    ) public override(AmberfiCallbackUpgradeable) {\n        AmberfiStorage astorage = AmberfiStorage(address(marketAddress));\n        AmberfiCallbackUpgradeable.Status store = astorage.getStorageStatus(\n            itemId_,\n            tempCid_\n        );\n        // string\n        //     memory errorBase = \"NFT: Amberfi failed to store content on Arweave old status=\";\n        // string memory errorStatus = \" new status= \";\n        // string memory errorMessage = append(\n        //     errorBase,\n        //     stringVar(store),\n        //     errorStatus,\n        //     stringVar(status_)\n        // );\n        // // This isn't properly compariing, is the error message the issue?\n        // require(\n        //     store == Status.Pending && status_ == Status.Finalized,\n        //     errorMessage\n        // );\n        _setTokenURI(itemId_, cid_);\n    }\n\n    /**\n     * @inheritdoc ERC165Upgradeable\n     */\n    function supportsInterface(bytes4 interfaceId_)\n        public\n        view\n        virtual\n        override(\n            ERC721Upgradeable,\n            ERC721LockableUpgradeable,\n            ERC721TokenURIAmberfiStorageContentUpgradeable,\n            ERC2981Upgradeable,\n            IERC721FullAmberfiContentFactory,\n            AmberfiCallbackUpgradeable,\n            AmberfiKeyStorageUpgradeable\n        )\n        returns (bool)\n    {\n        return\n            interfaceId_ == type(ERC2981Upgradeable).interfaceId ||\n            interfaceId_ ==\n            type(IERC721FullAmberfiContentFactory).interfaceId ||\n            interfaceId_ == type(AmberfiCallbackUpgradeable).interfaceId ||\n            interfaceId_ == type(AmberfiKeyStorageUpgradeable).interfaceId ||\n            super.supportsInterface(interfaceId_);\n    }\n\n    function tokenURI(uint256 tokenId)\n        public\n        view\n        override(ERC721Upgradeable, ERC721URIStorageUpgradeable)\n        returns (string memory)\n    {\n        return super.tokenURI(tokenId);\n    }\n}\n",
  "sourcePath": "/media/veracrypt25/Development/Cerulean Blue/Amberfi/amberfi-contracts/contracts/Amberfi/NFT.sol",
  "compiler": {
    "name": "solc",
    "version": "0.8.17+commit.8df45f5f.Emscripten.clang"
  },
  "schemaVersion": "3.4.10",
  "updatedAt": "2022-11-30T17:59:36.025Z",
  "devdoc": {
    "kind": "dev",
    "methods": {
      "approve(address,uint256)": {
        "details": "See {IERC721-approve}."
      },
      "balanceOf(address)": {
        "details": "See {IERC721-balanceOf}."
      },
      "burn(uint256)": {
        "details": "Burns `tokenId`. See {ERC721-_burn}. Requirements: - The caller must own `tokenId` or be an approved operator."
      },
      "getApproved(uint256)": {
        "details": "See {IERC721-getApproved}."
      },
      "getContentURI(uint256)": {
        "details": "gets content URI",
        "params": {
          "tokenId_": "the token id fir which we register the royalties"
        }
      },
      "getEncryptKey(uint256)": {
        "details": "Get the token key required to access content"
      },
      "getIsEncrypted(uint256)": {
        "details": "gets content URI",
        "params": {
          "tokenId_": "the token id fir which we register the royalties"
        }
      },
      "getLockApproved(uint256)": {
        "details": "See {IERC721Lockable-getLockApproved}."
      },
      "isApprovedForAll(address,address)": {
        "details": "See {IERC721-isApprovedForAll}."
      },
      "isLockApprovedForAll(address,address)": {
        "details": "See {IERC721Lockable-isLockApprovedForAll}."
      },
      "isLocked(uint256)": {
        "details": "See {IERC721Lockable-isLocked}."
      },
      "isTrustedForwarder(address)": {
        "details": "Check if forwarder is trusted forwarder",
        "params": {
          "forwarder_": "(address) Forwarder address"
        },
        "returns": {
          "_0": "(bool) result"
        }
      },
      "lockApprove(address,uint256)": {
        "details": "See {IERC721Lockable-lockApprove}."
      },
      "lockFrom(address,uint256,uint256)": {
        "details": "See {IERC721Lockable-lockFrom}."
      },
      "lockerOf(uint256)": {
        "details": "See {IERC721Lockable-lockerOf}."
      },
      "name()": {
        "details": "See {IERC721Metadata-name}."
      },
      "owner()": {
        "details": "Returns the address of the current owner."
      },
      "ownerOf(uint256)": {
        "details": "See {IERC721-ownerOf}."
      },
      "renounceOwnership()": {
        "details": "Leaves the contract without owner. It will not be possible to call `onlyOwner` functions anymore. Can only be called by the current owner. NOTE: Renouncing ownership will leave the contract without an owner, thereby removing any functionality that is only available to the owner."
      },
      "royaltyInfo(uint256,uint256)": {
        "details": "Returns how much royalty is owed and to whom, based on a sale price that may be denominated in any unit of exchange. The royalty amount is denominated and should be paid in that same unit of exchange."
      },
      "safeTransferFrom(address,address,uint256)": {
        "details": "See {IERC721-safeTransferFrom}."
      },
      "safeTransferFrom(address,address,uint256,bytes)": {
        "details": "See {IERC721-safeTransferFrom}."
      },
      "setApprovalForAll(address,bool)": {
        "details": "See {IERC721-setApprovalForAll}."
      },
      "setContent(uint256,uint8,bool,string,string)": {
        "details": "Sets encrypted URI",
        "params": {
          "content_": "(string calldata)",
          "hashVerify_": "(string calldata)",
          "isEncrypted_": "(bool)",
          "storageLocationId_": "(uin8) Storage location ID",
          "tokenId_": "(uint256) the token id fir which we register the royalties"
        }
      },
      "setContentAsEncrypted(uint256,bool)": {
        "details": "Sets content URI,",
        "params": {
          "isEncrypted_": "Content location",
          "tokenId_": "the token id fir which we register the royalties"
        }
      },
      "setContentURI(uint256,string)": {
        "details": "Sets content URI",
        "params": {
          "content_": "recipient of the royalties",
          "tokenId_": "the token id fir which we register the royalties"
        }
      },
      "setEncryptKey(uint256,string)": {
        "details": "Sets the encrypt key for the tokenid & content Requirements: - `tokenId` must exist."
      },
      "setLockApprovalForAll(address,bool)": {
        "details": "See {IERC721Lockable-setLockApprovalForAll}."
      },
      "supportsInterface(bytes4)": {
        "details": "See {IERC165-supportsInterface}."
      },
      "symbol()": {
        "details": "See {IERC721Metadata-symbol}."
      },
      "transferEncryptedContent(uint256,string,address)": {
        "details": "Transfer encrypted content",
        "params": {
          "content_": "the content",
          "newOwner_": "new encrypted content owner",
          "tokenId_": "the token id fir which we register the royalties"
        }
      },
      "transferFrom(address,address,uint256)": {
        "details": "See {IERC721-transferFrom}."
      },
      "transferOwnership(address)": {
        "details": "Transfers ownership of the contract to a new account (`newOwner`). Can only be called by the current owner."
      },
      "unlockFrom(address,uint256)": {
        "details": "See {IERC721Lockable-unlockFrom}."
      }
    },
    "version": 1
  },
  "userdoc": {
    "kind": "user",
    "methods": {},
    "version": 1
  }
}